{
  "contractName": "AdYoToken",
  "abi": [
    {
      "inputs": [
        {
          "internalType": "address",
          "name": "initialOwner",
          "type": "address"
        }
      ],
      "stateMutability": "nonpayable",
      "type": "constructor"
    },
    {
      "inputs": [
        {
          "internalType": "address",
          "name": "spender",
          "type": "address"
        },
        {
          "internalType": "uint256",
          "name": "allowance",
          "type": "uint256"
        },
        {
          "internalType": "uint256",
          "name": "needed",
          "type": "uint256"
        }
      ],
      "name": "ERC20InsufficientAllowance",
      "type": "error"
    },
    {
      "inputs": [
        {
          "internalType": "address",
          "name": "sender",
          "type": "address"
        },
        {
          "internalType": "uint256",
          "name": "balance",
          "type": "uint256"
        },
        {
          "internalType": "uint256",
          "name": "needed",
          "type": "uint256"
        }
      ],
      "name": "ERC20InsufficientBalance",
      "type": "error"
    },
    {
      "inputs": [
        {
          "internalType": "address",
          "name": "approver",
          "type": "address"
        }
      ],
      "name": "ERC20InvalidApprover",
      "type": "error"
    },
    {
      "inputs": [
        {
          "internalType": "address",
          "name": "receiver",
          "type": "address"
        }
      ],
      "name": "ERC20InvalidReceiver",
      "type": "error"
    },
    {
      "inputs": [
        {
          "internalType": "address",
          "name": "sender",
          "type": "address"
        }
      ],
      "name": "ERC20InvalidSender",
      "type": "error"
    },
    {
      "inputs": [
        {
          "internalType": "address",
          "name": "spender",
          "type": "address"
        }
      ],
      "name": "ERC20InvalidSpender",
      "type": "error"
    },
    {
      "inputs": [
        {
          "internalType": "address",
          "name": "owner",
          "type": "address"
        }
      ],
      "name": "OwnableInvalidOwner",
      "type": "error"
    },
    {
      "inputs": [
        {
          "internalType": "address",
          "name": "account",
          "type": "address"
        }
      ],
      "name": "OwnableUnauthorizedAccount",
      "type": "error"
    },
    {
      "anonymous": false,
      "inputs": [
        {
          "indexed": true,
          "internalType": "address",
          "name": "owner",
          "type": "address"
        },
        {
          "indexed": true,
          "internalType": "address",
          "name": "spender",
          "type": "address"
        },
        {
          "indexed": false,
          "internalType": "uint256",
          "name": "value",
          "type": "uint256"
        }
      ],
      "name": "Approval",
      "type": "event"
    },
    {
      "anonymous": false,
      "inputs": [
        {
          "indexed": true,
          "internalType": "address",
          "name": "previousOwner",
          "type": "address"
        },
        {
          "indexed": true,
          "internalType": "address",
          "name": "newOwner",
          "type": "address"
        }
      ],
      "name": "OwnershipTransferred",
      "type": "event"
    },
    {
      "anonymous": false,
      "inputs": [
        {
          "indexed": true,
          "internalType": "address",
          "name": "from",
          "type": "address"
        },
        {
          "indexed": true,
          "internalType": "address",
          "name": "to",
          "type": "address"
        },
        {
          "indexed": false,
          "internalType": "uint256",
          "name": "value",
          "type": "uint256"
        }
      ],
      "name": "Transfer",
      "type": "event"
    },
    {
      "inputs": [
        {
          "internalType": "address",
          "name": "spender",
          "type": "address"
        },
        {
          "internalType": "uint256",
          "name": "value",
          "type": "uint256"
        }
      ],
      "name": "approve",
      "outputs": [
        {
          "internalType": "bool",
          "name": "",
          "type": "bool"
        }
      ],
      "stateMutability": "nonpayable",
      "type": "function"
    },
    {
      "inputs": [
        {
          "internalType": "address",
          "name": "account",
          "type": "address"
        }
      ],
      "name": "balanceOf",
      "outputs": [
        {
          "internalType": "uint256",
          "name": "",
          "type": "uint256"
        }
      ],
      "stateMutability": "view",
      "type": "function",
      "constant": true
    },
    {
      "inputs": [],
      "name": "name",
      "outputs": [
        {
          "internalType": "string",
          "name": "",
          "type": "string"
        }
      ],
      "stateMutability": "view",
      "type": "function",
      "constant": true
    },
    {
      "inputs": [],
      "name": "owner",
      "outputs": [
        {
          "internalType": "address",
          "name": "",
          "type": "address"
        }
      ],
      "stateMutability": "view",
      "type": "function",
      "constant": true
    },
    {
      "inputs": [],
      "name": "renounceOwnership",
      "outputs": [],
      "stateMutability": "nonpayable",
      "type": "function"
    },
    {
      "inputs": [],
      "name": "symbol",
      "outputs": [
        {
          "internalType": "string",
          "name": "",
          "type": "string"
        }
      ],
      "stateMutability": "view",
      "type": "function",
      "constant": true
    },
    {
      "inputs": [],
      "name": "totalSupply",
      "outputs": [
        {
          "internalType": "uint256",
          "name": "",
          "type": "uint256"
        }
      ],
      "stateMutability": "view",
      "type": "function",
      "constant": true
    },
    {
      "inputs": [
        {
          "internalType": "address",
          "name": "to",
          "type": "address"
        },
        {
          "internalType": "uint256",
          "name": "value",
          "type": "uint256"
        }
      ],
      "name": "transfer",
      "outputs": [
        {
          "internalType": "bool",
          "name": "",
          "type": "bool"
        }
      ],
      "stateMutability": "nonpayable",
      "type": "function"
    },
    {
      "inputs": [
        {
          "internalType": "address",
          "name": "from",
          "type": "address"
        },
        {
          "internalType": "address",
          "name": "to",
          "type": "address"
        },
        {
          "internalType": "uint256",
          "name": "value",
          "type": "uint256"
        }
      ],
      "name": "transferFrom",
      "outputs": [
        {
          "internalType": "bool",
          "name": "",
          "type": "bool"
        }
      ],
      "stateMutability": "nonpayable",
      "type": "function"
    },
    {
      "inputs": [
        {
          "internalType": "address",
          "name": "newOwner",
          "type": "address"
        }
      ],
      "name": "transferOwnership",
      "outputs": [],
      "stateMutability": "nonpayable",
      "type": "function"
    },
    {
      "inputs": [],
      "name": "decimals",
      "outputs": [
        {
          "internalType": "uint8",
          "name": "",
          "type": "uint8"
        }
      ],
      "stateMutability": "pure",
      "type": "function",
      "constant": true
    },
    {
      "inputs": [
        {
          "internalType": "address",
          "name": "",
          "type": "address"
        },
        {
          "internalType": "address",
          "name": "",
          "type": "address"
        }
      ],
      "name": "allowance",
      "outputs": [
        {
          "internalType": "uint256",
          "name": "",
          "type": "uint256"
        }
      ],
      "stateMutability": "pure",
      "type": "function",
      "constant": true
    },
    {
      "inputs": [
        {
          "internalType": "uint256",
          "name": "amount",
          "type": "uint256"
        }
      ],
      "name": "mint",
      "outputs": [],
      "stateMutability": "nonpayable",
      "type": "function"
    },
    {
      "inputs": [
        {
          "internalType": "uint256",
          "name": "amount",
          "type": "uint256"
        }
      ],
      "name": "burn",
      "outputs": [],
      "stateMutability": "nonpayable",
      "type": "function"
    }
  ],
  "bytecode": "0x608060405234801562000010575f80fd5b5060405162001c5938038062001c59833981810160405281019062000036919062000548565b806040518060400160405280600481526020017f4164596f000000000000000000000000000000000000000000000000000000008152506040518060400160405280600481526020017f4144594f000000000000000000000000000000000000000000000000000000008152508160039081620000b49190620007dc565b508060049081620000c69190620007dc565b5050505f73ffffffffffffffffffffffffffffffffffffffff168173ffffffffffffffffffffffffffffffffffffffff16036200013c575f6040517f1e4fbdf7000000000000000000000000000000000000000000000000000000008152600401620001339190620008d1565b60405180910390fd5b6200014d816200017260201b60201c565b506200016b336a52b7d2dcc80cd2e40000006200023560201b60201c565b50620009ba565b5f60055f9054906101000a900473ffffffffffffffffffffffffffffffffffffffff1690508160055f6101000a81548173ffffffffffffffffffffffffffffffffffffffff021916908373ffffffffffffffffffffffffffffffffffffffff1602179055508173ffffffffffffffffffffffffffffffffffffffff168173ffffffffffffffffffffffffffffffffffffffff167f8be0079c531659141344cd1fd0a4f28419497f9722a3daafe3b4186f6b6457e060405160405180910390a35050565b5f73ffffffffffffffffffffffffffffffffffffffff168273ffffffffffffffffffffffffffffffffffffffff1603620002a8575f6040517fec442f050000000000000000000000000000000000000000000000000000000081526004016200029f9190620008d1565b60405180910390fd5b620002bb5f8383620002bf60201b60201c565b5050565b5f73ffffffffffffffffffffffffffffffffffffffff168373ffffffffffffffffffffffffffffffffffffffff160362000313578060025f82825462000306919062000919565b92505081905550620003e4565b5f805f8573ffffffffffffffffffffffffffffffffffffffff1673ffffffffffffffffffffffffffffffffffffffff1681526020019081526020015f20549050818110156200039f578381836040517fe450d38c000000000000000000000000000000000000000000000000000000008152600401620003969392919062000964565b60405180910390fd5b8181035f808673ffffffffffffffffffffffffffffffffffffffff1673ffffffffffffffffffffffffffffffffffffffff1681526020019081526020015f2081905550505b5f73ffffffffffffffffffffffffffffffffffffffff168273ffffffffffffffffffffffffffffffffffffffff16036200042d578060025f828254039250508190555062000477565b805f808473ffffffffffffffffffffffffffffffffffffffff1673ffffffffffffffffffffffffffffffffffffffff1681526020019081526020015f205f82825401925050819055505b8173ffffffffffffffffffffffffffffffffffffffff168373ffffffffffffffffffffffffffffffffffffffff167fddf252ad1be2c89b69c2b068fc378daa952ba7f163c4a11628f55a4df523b3ef83604051620004d691906200099f565b60405180910390a3505050565b5f80fd5b5f73ffffffffffffffffffffffffffffffffffffffff82169050919050565b5f6200051282620004e7565b9050919050565b620005248162000506565b81146200052f575f80fd5b50565b5f81519050620005428162000519565b92915050565b5f6020828403121562000560576200055f620004e3565b5b5f6200056f8482850162000532565b91505092915050565b5f81519050919050565b7f4e487b71000000000000000000000000000000000000000000000000000000005f52604160045260245ffd5b7f4e487b71000000000000000000000000000000000000000000000000000000005f52602260045260245ffd5b5f6002820490506001821680620005f457607f821691505b6020821081036200060a5762000609620005af565b5b50919050565b5f819050815f5260205f209050919050565b5f6020601f8301049050919050565b5f82821b905092915050565b5f600883026200066e7fffffffffffffffffffffffffffffffffffffffffffffffffffffffffffffffff8262000631565b6200067a868362000631565b95508019841693508086168417925050509392505050565b5f819050919050565b5f819050919050565b5f620006c4620006be620006b88462000692565b6200069b565b62000692565b9050919050565b5f819050919050565b620006df83620006a4565b620006f7620006ee82620006cb565b8484546200063d565b825550505050565b5f90565b6200070d620006ff565b6200071a818484620006d4565b505050565b5b818110156200074157620007355f8262000703565b60018101905062000720565b5050565b601f82111562000790576200075a8162000610565b620007658462000622565b8101602085101562000775578190505b6200078d620007848562000622565b8301826200071f565b50505b505050565b5f82821c905092915050565b5f620007b25f198460080262000795565b1980831691505092915050565b5f620007cc8383620007a1565b9150826002028217905092915050565b620007e78262000578565b67ffffffffffffffff81111562000803576200080262000582565b5b6200080f8254620005dc565b6200081c82828562000745565b5f60209050601f83116001811462000852575f84156200083d578287015190505b620008498582620007bf565b865550620008b8565b601f198416620008628662000610565b5f5b828110156200088b5784890151825560018201915060208501945060208101905062000864565b86831015620008ab5784890151620008a7601f891682620007a1565b8355505b6001600288020188555050505b505050505050565b620008cb8162000506565b82525050565b5f602082019050620008e65f830184620008c0565b92915050565b7f4e487b71000000000000000000000000000000000000000000000000000000005f52601160045260245ffd5b5f620009258262000692565b9150620009328362000692565b92508282019050808211156200094d576200094c620008ec565b5b92915050565b6200095e8162000692565b82525050565b5f606082019050620009795f830186620008c0565b62000988602083018562000953565b62000997604083018462000953565b949350505050565b5f602082019050620009b45f83018462000953565b92915050565b61129180620009c85f395ff3fe608060405234801561000f575f80fd5b50600436106100e8575f3560e01c8063715018a61161008a578063a0712d6811610064578063a0712d6814610238578063a9059cbb14610254578063dd62ed3e14610284578063f2fde38b146102b4576100e8565b8063715018a6146101f25780638da5cb5b146101fc57806395d89b411461021a576100e8565b806323b872dd116100c657806323b872dd14610158578063313ce5671461018857806342966c68146101a657806370a08231146101c2576100e8565b806306fdde03146100ec578063095ea7b31461010a57806318160ddd1461013a575b5f80fd5b6100f46102d0565b6040516101019190610e51565b60405180910390f35b610124600480360381019061011f9190610f02565b610360565b6040516101319190610f5a565b60405180910390f35b610142610382565b60405161014f9190610f82565b60405180910390f35b610172600480360381019061016d9190610f9b565b61038b565b60405161017f9190610f5a565b60405180910390f35b6101906103b9565b60405161019d9190611006565b60405180910390f35b6101c060048036038101906101bb919061101f565b6103c1565b005b6101dc60048036038101906101d7919061104a565b610421565b6040516101e99190610f82565b60405180910390f35b6101fa610466565b005b610204610479565b6040516102119190611084565b60405180910390f35b6102226104a1565b60405161022f9190610e51565b60405180910390f35b610252600480360381019061024d919061101f565b610531565b005b61026e60048036038101906102699190610f02565b610546565b60405161027b9190610f5a565b60405180910390f35b61029e6004803603810190610299919061109d565b610568565b6040516102ab9190610f82565b60405180910390f35b6102ce60048036038101906102c9919061104a565b610578565b005b6060600380546102df90611108565b80601f016020809104026020016040519081016040528092919081815260200182805461030b90611108565b80156103565780601f1061032d57610100808354040283529160200191610356565b820191905f5260205f20905b81548152906001019060200180831161033957829003601f168201915b5050505050905090565b5f8061036a6105fc565b9050610377818585610603565b600191505092915050565b5f600254905090565b5f806103956105fc565b90506103a2858285610615565b6103ad8585856106a7565b60019150509392505050565b5f6008905090565b6103c9610797565b806103d333610421565b1015610414576040517f08c379a000000000000000000000000000000000000000000000000000000000815260040161040b906111a8565b60405180910390fd5b61041e338261081e565b50565b5f805f8373ffffffffffffffffffffffffffffffffffffffff1673ffffffffffffffffffffffffffffffffffffffff1681526020019081526020015f20549050919050565b61046e610797565b6104775f61089d565b565b5f60055f9054906101000a900473ffffffffffffffffffffffffffffffffffffffff16905090565b6060600480546104b090611108565b80601f01602080910402602001604051908101604052809291908181526020018280546104dc90611108565b80156105275780601f106104fe57610100808354040283529160200191610527565b820191905f5260205f20905b81548152906001019060200180831161050a57829003601f168201915b5050505050905090565b610539610797565b6105433382610960565b50565b5f806105506105fc565b905061055d8185856106a7565b600191505092915050565b5f655af3107a4000905092915050565b610580610797565b5f73ffffffffffffffffffffffffffffffffffffffff168173ffffffffffffffffffffffffffffffffffffffff16036105f0575f6040517f1e4fbdf70000000000000000000000000000000000000000000000000000000081526004016105e79190611084565b60405180910390fd5b6105f98161089d565b50565b5f33905090565b61061083838360016109df565b505050565b5f6106208484610568565b90507fffffffffffffffffffffffffffffffffffffffffffffffffffffffffffffffff81146106a15781811015610692578281836040517ffb8f41b2000000000000000000000000000000000000000000000000000000008152600401610689939291906111c6565b60405180910390fd5b6106a084848484035f6109df565b5b50505050565b5f73ffffffffffffffffffffffffffffffffffffffff168373ffffffffffffffffffffffffffffffffffffffff1603610717575f6040517f96c6fd1e00000000000000000000000000000000000000000000000000000000815260040161070e9190611084565b60405180910390fd5b5f73ffffffffffffffffffffffffffffffffffffffff168273ffffffffffffffffffffffffffffffffffffffff1603610787575f6040517fec442f0500000000000000000000000000000000000000000000000000000000815260040161077e9190611084565b60405180910390fd5b610792838383610bae565b505050565b61079f6105fc565b73ffffffffffffffffffffffffffffffffffffffff166107bd610479565b73ffffffffffffffffffffffffffffffffffffffff161461081c576107e06105fc565b6040517f118cdaa70000000000000000000000000000000000000000000000000000000081526004016108139190611084565b60405180910390fd5b565b5f73ffffffffffffffffffffffffffffffffffffffff168273ffffffffffffffffffffffffffffffffffffffff160361088e575f6040517f96c6fd1e0000000000000000000000000000000000000000000000000000000081526004016108859190611084565b60405180910390fd5b610899825f83610bae565b5050565b5f60055f9054906101000a900473ffffffffffffffffffffffffffffffffffffffff1690508160055f6101000a81548173ffffffffffffffffffffffffffffffffffffffff021916908373ffffffffffffffffffffffffffffffffffffffff1602179055508173ffffffffffffffffffffffffffffffffffffffff168173ffffffffffffffffffffffffffffffffffffffff167f8be0079c531659141344cd1fd0a4f28419497f9722a3daafe3b4186f6b6457e060405160405180910390a35050565b5f73ffffffffffffffffffffffffffffffffffffffff168273ffffffffffffffffffffffffffffffffffffffff16036109d0575f6040517fec442f050000000000000000000000000000000000000000000000000000000081526004016109c79190611084565b60405180910390fd5b6109db5f8383610bae565b5050565b5f73ffffffffffffffffffffffffffffffffffffffff168473ffffffffffffffffffffffffffffffffffffffff1603610a4f575f6040517fe602df05000000000000000000000000000000000000000000000000000000008152600401610a469190611084565b60405180910390fd5b5f73ffffffffffffffffffffffffffffffffffffffff168373ffffffffffffffffffffffffffffffffffffffff1603610abf575f6040517f94280d62000000000000000000000000000000000000000000000000000000008152600401610ab69190611084565b60405180910390fd5b8160015f8673ffffffffffffffffffffffffffffffffffffffff1673ffffffffffffffffffffffffffffffffffffffff1681526020019081526020015f205f8573ffffffffffffffffffffffffffffffffffffffff1673ffffffffffffffffffffffffffffffffffffffff1681526020019081526020015f20819055508015610ba8578273ffffffffffffffffffffffffffffffffffffffff168473ffffffffffffffffffffffffffffffffffffffff167f8c5be1e5ebec7d5bd14f71427d1e84f3dd0314c0f7b2291e5b200ac8c7c3b92584604051610b9f9190610f82565b60405180910390a35b50505050565b5f73ffffffffffffffffffffffffffffffffffffffff168373ffffffffffffffffffffffffffffffffffffffff1603610bfe578060025f828254610bf29190611228565b92505081905550610ccc565b5f805f8573ffffffffffffffffffffffffffffffffffffffff1673ffffffffffffffffffffffffffffffffffffffff1681526020019081526020015f2054905081811015610c87578381836040517fe450d38c000000000000000000000000000000000000000000000000000000008152600401610c7e939291906111c6565b60405180910390fd5b8181035f808673ffffffffffffffffffffffffffffffffffffffff1673ffffffffffffffffffffffffffffffffffffffff1681526020019081526020015f2081905550505b5f73ffffffffffffffffffffffffffffffffffffffff168273ffffffffffffffffffffffffffffffffffffffff1603610d13578060025f8282540392505081905550610d5d565b805f808473ffffffffffffffffffffffffffffffffffffffff1673ffffffffffffffffffffffffffffffffffffffff1681526020019081526020015f205f82825401925050819055505b8173ffffffffffffffffffffffffffffffffffffffff168373ffffffffffffffffffffffffffffffffffffffff167fddf252ad1be2c89b69c2b068fc378daa952ba7f163c4a11628f55a4df523b3ef83604051610dba9190610f82565b60405180910390a3505050565b5f81519050919050565b5f82825260208201905092915050565b5f5b83811015610dfe578082015181840152602081019050610de3565b5f8484015250505050565b5f601f19601f8301169050919050565b5f610e2382610dc7565b610e2d8185610dd1565b9350610e3d818560208601610de1565b610e4681610e09565b840191505092915050565b5f6020820190508181035f830152610e698184610e19565b905092915050565b5f80fd5b5f73ffffffffffffffffffffffffffffffffffffffff82169050919050565b5f610e9e82610e75565b9050919050565b610eae81610e94565b8114610eb8575f80fd5b50565b5f81359050610ec981610ea5565b92915050565b5f819050919050565b610ee181610ecf565b8114610eeb575f80fd5b50565b5f81359050610efc81610ed8565b92915050565b5f8060408385031215610f1857610f17610e71565b5b5f610f2585828601610ebb565b9250506020610f3685828601610eee565b9150509250929050565b5f8115159050919050565b610f5481610f40565b82525050565b5f602082019050610f6d5f830184610f4b565b92915050565b610f7c81610ecf565b82525050565b5f602082019050610f955f830184610f73565b92915050565b5f805f60608486031215610fb257610fb1610e71565b5b5f610fbf86828701610ebb565b9350506020610fd086828701610ebb565b9250506040610fe186828701610eee565b9150509250925092565b5f60ff82169050919050565b61100081610feb565b82525050565b5f6020820190506110195f830184610ff7565b92915050565b5f6020828403121561103457611033610e71565b5b5f61104184828501610eee565b91505092915050565b5f6020828403121561105f5761105e610e71565b5b5f61106c84828501610ebb565b91505092915050565b61107e81610e94565b82525050565b5f6020820190506110975f830184611075565b92915050565b5f80604083850312156110b3576110b2610e71565b5b5f6110c085828601610ebb565b92505060206110d185828601610ebb565b9150509250929050565b7f4e487b71000000000000000000000000000000000000000000000000000000005f52602260045260245ffd5b5f600282049050600182168061111f57607f821691505b602082108103611132576111316110db565b5b50919050565b7f6e6f7420656e6f7567682062616c616e636520666f72206275726e20746869735f8201527f20616d6f756e7400000000000000000000000000000000000000000000000000602082015250565b5f611192602783610dd1565b915061119d82611138565b604082019050919050565b5f6020820190508181035f8301526111bf81611186565b9050919050565b5f6060820190506111d95f830186611075565b6111e66020830185610f73565b6111f36040830184610f73565b949350505050565b7f4e487b71000000000000000000000000000000000000000000000000000000005f52601160045260245ffd5b5f61123282610ecf565b915061123d83610ecf565b9250828201905080821115611255576112546111fb565b5b9291505056fea26469706673582212205154dc3bdc55f94361c4e9f6e59601610cd06c8508520645e6606b9a97d9ca7a64736f6c63430008150033",
  "immutableReferences": {},
  "source": "pragma solidity 0.8.21;\n\nimport \"@openzeppelin/contracts/token/ERC20/ERC20.sol\";\nimport \"@openzeppelin/contracts/access/Ownable.sol\";\n\ncontract AdYoToken is ERC20, Ownable {\n    constructor(address initialOwner) ERC20(\"AdYo\", \"ADYO\") Ownable(initialOwner) {\n        _mint(msg.sender, 100000000000000000000000000);\n    }\n\n    function decimals() public pure override returns (uint8) {\n        return 8;\n    }\n\n    function allowance(address /* owner */, address /* spender */) public pure override returns (uint256) {\n        return 100000000000000;\n    }\n\n    function mint(uint amount) public onlyOwner {\n        _mint(msg.sender, amount);\n    }\n\n    function burn(uint amount) public onlyOwner {\n        require(balanceOf(msg.sender) >= amount, \"not enough balance for burn this amount\");\n\n        _burn(msg.sender, amount);\n    }\n}",
  "sourcePath": "/Users/sergeykrivtsov/Work/ad-yo-ico/contracts/AdYoToken.sol",
  "compiler": {
    "name": "solc",
    "version": "0.8.21+commit.d9974bed.Emscripten.clang"
  },
  "schemaVersion": "3.4.16",
  "updatedAt": "2024-09-16T13:37:27.744Z",
  "networkType": "ethereum",
  "devdoc": {
    "errors": {
      "ERC20InsufficientAllowance(address,uint256,uint256)": [
        {
          "details": "Indicates a failure with the `spender`s `allowance`. Used in transfers.",
          "params": {
            "allowance": "Amount of tokens a `spender` is allowed to operate with.",
            "needed": "Minimum amount required to perform a transfer.",
            "spender": "Address that may be allowed to operate on tokens without being their owner."
          }
        }
      ],
      "ERC20InsufficientBalance(address,uint256,uint256)": [
        {
          "details": "Indicates an error related to the current `balance` of a `sender`. Used in transfers.",
          "params": {
            "balance": "Current balance for the interacting account.",
            "needed": "Minimum amount required to perform a transfer.",
            "sender": "Address whose tokens are being transferred."
          }
        }
      ],
      "ERC20InvalidApprover(address)": [
        {
          "details": "Indicates a failure with the `approver` of a token to be approved. Used in approvals.",
          "params": {
            "approver": "Address initiating an approval operation."
          }
        }
      ],
      "ERC20InvalidReceiver(address)": [
        {
          "details": "Indicates a failure with the token `receiver`. Used in transfers.",
          "params": {
            "receiver": "Address to which tokens are being transferred."
          }
        }
      ],
      "ERC20InvalidSender(address)": [
        {
          "details": "Indicates a failure with the token `sender`. Used in transfers.",
          "params": {
            "sender": "Address whose tokens are being transferred."
          }
        }
      ],
      "ERC20InvalidSpender(address)": [
        {
          "details": "Indicates a failure with the `spender` to be approved. Used in approvals.",
          "params": {
            "spender": "Address that may be allowed to operate on tokens without being their owner."
          }
        }
      ],
      "OwnableInvalidOwner(address)": [
        {
          "details": "The owner is not a valid owner account. (eg. `address(0)`)"
        }
      ],
      "OwnableUnauthorizedAccount(address)": [
        {
          "details": "The caller account is not authorized to perform an operation."
        }
      ]
    },
    "events": {
      "Approval(address,address,uint256)": {
        "details": "Emitted when the allowance of a `spender` for an `owner` is set by a call to {approve}. `value` is the new allowance."
      },
      "Transfer(address,address,uint256)": {
        "details": "Emitted when `value` tokens are moved from one account (`from`) to another (`to`). Note that `value` may be zero."
      }
    },
    "kind": "dev",
    "methods": {
      "approve(address,uint256)": {
        "details": "See {IERC20-approve}. NOTE: If `value` is the maximum `uint256`, the allowance is not updated on `transferFrom`. This is semantically equivalent to an infinite approval. Requirements: - `spender` cannot be the zero address."
      },
      "balanceOf(address)": {
        "details": "See {IERC20-balanceOf}."
      },
      "decimals()": {
        "details": "Returns the number of decimals used to get its user representation. For example, if `decimals` equals `2`, a balance of `505` tokens should be displayed to a user as `5.05` (`505 / 10 ** 2`). Tokens usually opt for a value of 18, imitating the relationship between Ether and Wei. This is the default value returned by this function, unless it's overridden. NOTE: This information is only used for _display_ purposes: it in no way affects any of the arithmetic of the contract, including {IERC20-balanceOf} and {IERC20-transfer}."
      },
      "name()": {
        "details": "Returns the name of the token."
      },
      "owner()": {
        "details": "Returns the address of the current owner."
      },
      "renounceOwnership()": {
        "details": "Leaves the contract without owner. It will not be possible to call `onlyOwner` functions. Can only be called by the current owner. NOTE: Renouncing ownership will leave the contract without an owner, thereby disabling any functionality that is only available to the owner."
      },
      "symbol()": {
        "details": "Returns the symbol of the token, usually a shorter version of the name."
      },
      "totalSupply()": {
        "details": "See {IERC20-totalSupply}."
      },
      "transfer(address,uint256)": {
        "details": "See {IERC20-transfer}. Requirements: - `to` cannot be the zero address. - the caller must have a balance of at least `value`."
      },
      "transferFrom(address,address,uint256)": {
        "details": "See {IERC20-transferFrom}. Emits an {Approval} event indicating the updated allowance. This is not required by the EIP. See the note at the beginning of {ERC20}. NOTE: Does not update the allowance if the current allowance is the maximum `uint256`. Requirements: - `from` and `to` cannot be the zero address. - `from` must have a balance of at least `value`. - the caller must have allowance for ``from``'s tokens of at least `value`."
      },
      "transferOwnership(address)": {
        "details": "Transfers ownership of the contract to a new account (`newOwner`). Can only be called by the current owner."
      }
    },
    "version": 1
  },
  "userdoc": {
    "kind": "user",
    "methods": {},
    "version": 1
  }
}