{
  "contractName": "MetaCoin",
  "abi": [
    {
      "inputs": [],
      "stateMutability": "nonpayable",
      "type": "constructor"
    },
    {
      "anonymous": false,
      "inputs": [
        {
          "indexed": true,
          "internalType": "address",
          "name": "_from",
          "type": "address"
        },
        {
          "indexed": true,
          "internalType": "address",
          "name": "_to",
          "type": "address"
        },
        {
          "indexed": false,
          "internalType": "uint256",
          "name": "_value",
          "type": "uint256"
        }
      ],
      "name": "Transfer",
      "type": "event"
    },
    {
      "inputs": [
        {
          "internalType": "address",
          "name": "receiver",
          "type": "address"
        },
        {
          "internalType": "uint256",
          "name": "amount",
          "type": "uint256"
        }
      ],
      "name": "sendCoin",
      "outputs": [
        {
          "internalType": "bool",
          "name": "sufficient",
          "type": "bool"
        }
      ],
      "stateMutability": "nonpayable",
      "type": "function"
    },
    {
      "inputs": [
        {
          "internalType": "address",
          "name": "addr",
          "type": "address"
        }
      ],
      "name": "getBalanceInEth",
      "outputs": [
        {
          "internalType": "uint256",
          "name": "",
          "type": "uint256"
        }
      ],
      "stateMutability": "view",
      "type": "function"
    },
    {
      "inputs": [
        {
          "internalType": "address",
          "name": "addr",
          "type": "address"
        }
      ],
      "name": "getBalance",
      "outputs": [
        {
          "internalType": "uint256",
          "name": "",
          "type": "uint256"
        }
      ],
      "stateMutability": "view",
      "type": "function"
    }
  ],
  "bytecode": "0x608060405234801561000f575f80fd5b506127105f803273ffffffffffffffffffffffffffffffffffffffff1673ffffffffffffffffffffffffffffffffffffffff1681526020019081526020015f20819055506105d7806100605f395ff3fe608060405234801561000f575f80fd5b506004361061003f575f3560e01c80637bd703e81461004357806390b98a1114610073578063f8b2cb4f146100a3575b5f80fd5b61005d60048036038101906100589190610360565b6100d3565b60405161006a91906103a3565b60405180910390f35b61008d600480360381019061008891906103e6565b61015c565b60405161009a919061043e565b60405180910390f35b6100bd60048036038101906100b89190610360565b6102bd565b6040516100ca91906103a3565b60405180910390f35b5f73__ConvertLib____________________________6396e4ee3d6100f7846102bd565b60026040518363ffffffff1660e01b81526004016101169291906104a8565b602060405180830381865af4158015610131573d5f803e3d5ffd5b505050506040513d601f19601f8201168201806040525081019061015591906104e3565b9050919050565b5f815f803373ffffffffffffffffffffffffffffffffffffffff1673ffffffffffffffffffffffffffffffffffffffff1681526020019081526020015f205410156101a9575f90506102b7565b815f803373ffffffffffffffffffffffffffffffffffffffff1673ffffffffffffffffffffffffffffffffffffffff1681526020019081526020015f205f8282546101f4919061053b565b92505081905550815f808573ffffffffffffffffffffffffffffffffffffffff1673ffffffffffffffffffffffffffffffffffffffff1681526020019081526020015f205f828254610246919061056e565b925050819055508273ffffffffffffffffffffffffffffffffffffffff163373ffffffffffffffffffffffffffffffffffffffff167fddf252ad1be2c89b69c2b068fc378daa952ba7f163c4a11628f55a4df523b3ef846040516102aa91906103a3565b60405180910390a3600190505b92915050565b5f805f8373ffffffffffffffffffffffffffffffffffffffff1673ffffffffffffffffffffffffffffffffffffffff1681526020019081526020015f20549050919050565b5f80fd5b5f73ffffffffffffffffffffffffffffffffffffffff82169050919050565b5f61032f82610306565b9050919050565b61033f81610325565b8114610349575f80fd5b50565b5f8135905061035a81610336565b92915050565b5f6020828403121561037557610374610302565b5b5f6103828482850161034c565b91505092915050565b5f819050919050565b61039d8161038b565b82525050565b5f6020820190506103b65f830184610394565b92915050565b6103c58161038b565b81146103cf575f80fd5b50565b5f813590506103e0816103bc565b92915050565b5f80604083850312156103fc576103fb610302565b5b5f6104098582860161034c565b925050602061041a858286016103d2565b9150509250929050565b5f8115159050919050565b61043881610424565b82525050565b5f6020820190506104515f83018461042f565b92915050565b6104608161038b565b82525050565b5f819050919050565b5f819050919050565b5f61049261048d61048884610466565b61046f565b61038b565b9050919050565b6104a281610478565b82525050565b5f6040820190506104bb5f830185610457565b6104c86020830184610499565b9392505050565b5f815190506104dd816103bc565b92915050565b5f602082840312156104f8576104f7610302565b5b5f610505848285016104cf565b91505092915050565b7f4e487b71000000000000000000000000000000000000000000000000000000005f52601160045260245ffd5b5f6105458261038b565b91506105508361038b565b92508282039050818111156105685761056761050e565b5b92915050565b5f6105788261038b565b91506105838361038b565b925082820190508082111561059b5761059a61050e565b5b9291505056fea26469706673582212202b1467431860f181837c6942da002f40d42996107c8896bd4d8e6f8f89120f8364736f6c63430008150033",
  "immutableReferences": {},
  "source": "pragma solidity 0.8.21;\n\nimport \"./ConvertLib.sol\";\n\n// This is just a simple example of a coin-like contract.\n// It is not standards compatible and cannot be expected to talk to other\n// coin/token contracts. If you want to create a standards-compliant\n// token, see: https://github.com/ConsenSys/Tokens. Cheers!\n\ncontract MetaCoin {\n\tmapping (address => uint) balances;\n\n\tevent Transfer(address indexed _from, address indexed _to, uint256 _value);\n\n\tconstructor() public {\n\t\tbalances[tx.origin] = 10000;\n\t}\n\n\tfunction sendCoin(address receiver, uint amount) public returns(bool sufficient) {\n\t\tif (balances[msg.sender] < amount) return false;\n\t\tbalances[msg.sender] -= amount;\n\t\tbalances[receiver] += amount;\n\t\temit Transfer(msg.sender, receiver, amount);\n\t\treturn true;\n\t}\n\n\tfunction getBalanceInEth(address addr) public view returns(uint){\n\t\treturn ConvertLib.convert(getBalance(addr),2);\n\t}\n\n\tfunction getBalance(address addr) public view returns(uint) {\n\t\treturn balances[addr];\n\t}\n}\n",
  "sourcePath": "/Users/sergeykrivtsov/Work/ad-yo-ico/contracts/MetaCoin.sol",
  "compiler": {
    "name": "solc",
    "version": "0.8.21+commit.d9974bed.Emscripten.clang"
  },
  "schemaVersion": "3.4.16",
  "updatedAt": "2024-09-16T13:37:26.786Z",
  "devdoc": {
    "kind": "dev",
    "methods": {},
    "version": 1
  },
  "userdoc": {
    "kind": "user",
    "methods": {},
    "version": 1
  }
}